:100000000C94A4070C94CF070C94CF070C94CF0743
:100010000C94CF070C94CF070C94CF070C94CF0708
:100020000C94EF3D0C94CF070C94CF070C94CF07A2
:100030000C94CF070C94672E0C94CF070C94CF0729
:100040000C94CF070C94CF070C94CF070C94CF07D8
:100050000C94C63D0C949C3D0C94CF070C94CF0798
:100060000C94CF070C94CF070C94CF070C94CF07B8
:100070000C94CF070C94CF070C94CF070C94CF07A8
:100080000C94CF070C94CF070C94CF07040000000A
:100090000004040000000004000000000000000450
:1000A000000000000004000200000400040000043E
:1000B000070404000004040400000202000000021F
:1000C00004070004070704000404000004000202FF
:1000D00004040404040000040004040404040404EC
:1000E00000040002030400040400040004000004EF
:1000F0000004000000000000000001020102F00006
:10010000C22D020001000000432A0300010000008C
:100110004F2A040001000000522A050001000000DF
:10012000972A06010001BF033212070001000000F8
:10013000A81208010001EF008C1209000100000064
:10014000632D0A020101BA03812D0B030103EC00A8
:10015000642D0C020102EA00962D0D020002F0004F
:100160003A320E020002A6033F320F030003EC00F6
:10017000B23210020002EA00211811050005E50064
:10018000D71712020002A603312913010001EF0064
:10019000132814020002EA00FC1015020002A60354
:1001A000891016040004E100241117050005DC0085
:1001B000A61018010001EF00DF2719080008D4007D
:1001C0006B281A030003D10051281B020002A6036A
:1001D000381F1C020002EA00161E1D0400049403CE
:1001E0009A1F1E010001EF00431E1F080008C900EE
:1001F000C61D20020002EA00551E21040003A803C8
:10020000DF1222030002AB03D41423030002AB036A
:10021000E41424040004A2033C1325010001EF00B0
:10022000D71226030003C600091327050003C300E5
:10023000C52A28040003C0009D2B29030002AB033C
:10024000AA2A2A040004A203FA2B2B010001EF00C2
:10025000952B2C030003BD0080212D030003AD036B
:10026000161D2E060006B700901D2F020002A603E1
:10027000AD2530050005B200F82031040004B403B8
:10028000542132020002A603352133040003AF00DB
:10029000452534050005AA00E62535010001EF00DB
:1002A00092303604000398033D3137050005A50060
:1002B0007E2438040004A203423039030003C60040
:1002C00074303A030002AB038A313B030002AB03F4
:1002D0001B323C0600069F00A9313D030002AB0320
:1002E0001A393E030002AB0336393F080008970075
:1002F0005239400600069F00C039410500059200B2
:10030000D33842010001EF00A41543030003EC00C1
:10031000F31A44020002A6035219450600068C0097
:10032000391546030003D1007B1547010001EF009A
:10033000033648030003EC00613749020002A603BC
:10034000E4354A030002AB0335224B040004940356
:1003500044204C030003D100ED1F4D010001EF00CC
:10036000B3214E030003EC0022234F020002A60338
:100370009421500001000000903D51000500000054
:100380000001020304050607040000020400020441
:100390000204000704000004040207040000020431
:1003A000040204000000040404040704070400021B
:1003B000040404000404000404010704000402000F
:1003C000000000000000060002026D400398036C6C
:1003D0001F0788036B400398036A0B028F03694071
:1003E0000391036840039803671C079B036614048A
:1003F00094036540039803641C079B03631704A2DE
:1004000003620A02A603614002AB03604003A80333
:100410005F4002AB035E4002AB035D1003AD035CC3
:100420001104B0035B1104B4035A0D02B803590B55
:1004300001BF03584001BA03571204BB03560B0116
:10044000BF03551002C003541503C203004002C588
:1004500003530E02C703520901C9035106000000ED
:1004600020002300260029000B470044004500809F
:10047000010C48004400450020011D8800800081D7
:100480000080001C8A008000810020001FB300B0A3
:1004900000B10080031EB400B000B10020030E982C
:1004A000009000910080000F9A00900091002000C1
:1004B00078DAB5597B6FDC3612FF2AEC02C15D8B0E
:1004C0008DB19256FBF0217FD86BF710B44EDC381B
:1004D0006E0A1C0A4196B8BB84F5AA28F97185BF3B
:1004E000FBCD70F892769D0677B800C18AE4901C27
:1004F000CEE3370FFF39B9EB4591270FBC95A2AE7C
:10050000E4E474B2CBB253F6F77F6E36DFB3F8642F
:100510007E326377A2EA3B51489CFD70CBCEF5F06A
:100520007B169E848B9370162C6641184FA693AC55
:100530002ECBB4CAE1903F276951D459DAF1A41601
:10054000B96459DD57DDBB37D9E47435851BBB0E63
:10055000AE4AD2EC9EC12A4C7BEBF3A54790E786CE
:10056000A0A9A5FA11D5BB373D6BFAA248FA863689
:10057000ACDD863F7ADE3EDB3381817BA46EB9EC55
:10058000924E64F792465D9B56B2145D626E65A210
:1005900082F7EBFB81C1ACE0699BC87DDFE5F563C9
:1005A00035390DF169D556EC80A3A7229AC7E60A22
:1005B000D988843E27A7CBC851556951EF125159AC
:1005C000EE15DB93D3C89DA4593614344C9C1CE221
:1005D00099255593BC1D1E369041BCB4C4B9D88929
:1005E0002E2D92BAEF461B1ED2A2E738CEF936ED79
:1005F0008B2EB11365FA94E47D9B7660018ACFC09F
:100600009DC7419F5DDD0CCECA0697870B4BBCCFC3
:10061000E7F3E56A66885B99E8BBB9F9C8E7F62BAA
:10062000B65F0BFBB5B45FBC489FADD226A70B27C6
:100630005D1166CC087DEEA60B21C3FCF198661611
:100640002B4B5436FD3A8C2D837094D3DFDA525500
:10065000BC6EC4132F4602CCD32E4DA4F837C86C01
:10066000DF835774090ACE332CC9614A541EDB71EB
:100670006C0F6D1ECB234AC99EC1D8DC195A25FBCD
:100680007EAC249839D0D2DC091E9E3B3E18FDABCF
:10069000130F3CD98BDD5EBD305AF9F460A5BB82E7
:1006A0001FCA8BD9B5A47B6E38C9667093F58C636D
:1006B0009BF55252CADDBB373F001444D160EFA313
:1006C000E8F620862493568991B336D92DD7A155C3
:1006D0004F66ED4766C5BDFD16B9FD7CAEB26468D8
:1006E0002A2C2BF3E4C07A66DE0DBC699C33E13022
:1006F000D1469D8BD67C1220286247D517927B87E6
:1007000086EE61DD9EB7650D7EDA1C95A8BFEC090B
:10071000D531D595599FB6D636DAA7E4C0C9596701
:1007200027D1F23A5172B23007295D8BF27062859F
:10073000F3737ED7833DD7CDE4746D4670CA4ED92E
:1007400032E927B0642D4F016FDB9CB7781F806FB3
:100750004B60101A82C75674FC80028D960883E99C
:100760008497BCDDF12A7B4E10358009982204491C
:10077000F675C90FB059A665E33B801E5B641E6227
:1007800037B0EE508B9E6B65DC8ADD8EB7F808893A
:10079000FE81C014BBCB5564009ED28E5B0185F3F5
:1007A000E9642B00ABC1A5139221CBDA8C2C663AFD
:1007B000D981372B3E41C87AA468407334EC1BD4EE
:1007C00002F8E174A2812F91705F021668711DBF5B
:1007D00049CE8B7044862A30644E1D0B1022C252C3
:1007E00059E762FB9C80AEED592D572EC5747802F7
:1007F0000E70557BD99AB6910E87F43897145C83A6
:10080000C68C08D5F65EFA48084385632023FC456C
:10081000F57249B63E0FDD2E596FBBC7B4E5FE76C3
:10082000F04FEB93796A3E8F9DB488E9246D4BE3DA
:10083000E7CFF1F939AF3A783CABB75BB85039B58F
:100840008D8BB06EE05989D16A338EBC95BEC99D3F
:10085000A62979D8F7DE3531E88C4C6214D18F2780
:100860000DA0F270B441D952EF406C19588271F466
:10087000FF2F8DBD74C6AED1DF8D2083D9C1C63D9B
:10088000CFEEBD9C21B23C8C5206CB4153039E8CD3
:10089000EFF7C2D5C21C308CA6AF4965B11CD28F10
:1008A00085B2B0E78D02EFAB625E8D361C88D9DE73
:1008B0007810C25EC9F7D0472162892DC968199B9B
:1008C000038E81F62B6778AA18688206102C0043E5
:1008D000724F118BB5BAA4E7C7D2317B47ED670AD7
:1008E000416CB68C12054B6EB50F5E628931325980
:1008F0001F469513181B87D92BE7835F01700726C6
:10090000AC721448C267FA53ED27941BDF071B80B3
:100910000A69FC378C7249E03B3A20522F50898D8E
:100920003D7390E5C0A6056DAAF893660162AF0518
:1009300003D1123C074464E4F117191348059CDA0B
:100940004B5E30CBDF3A1F70CEBFD4741E7C78ABC9
:10095000915D1D00244E69800468E61EBCC1968529
:10096000DB720C1D4B216B8389652DC5B1ACE6E0B4
:10097000D085E6E3F57744600594307D2DEEC4EB39
:1009800021D5F1B013AF904AA54609C636804C81F7
:1009900089A675BC60ED08544445EBA598CB6C085E
:1009A000F60232EC802375623310B5427E1B980844
:1009B000BB41D57A37CA105DF688078049AC1C5D0B
:1009C000E7274CBCA95B1DADC97BD5D81A097F6A46
:1009D00004A8C4CF0DD6F6A4D12B7C22001B8A24F8
:1009E000C7FCD8F381F98B49C2B0F43DBBD824577A
:1009F00067BF616A8539E2F9ED4D72FDFEC30D22D4
:100A00001694D7D7E78BE9F5790CFF97136FB17B75
:100A1000548B9BD9F47A13C0C2E6E78F9B9F921F39
:100A20003F5DFE82EE3253FFA693ABCD2D50A55D08
:100A3000C9776910AEE60D505E7FB9A2EB42AC36C5
:100A40003E5D6E2EDFFF7A997C79FFE1E2E317D4F9
:100A50005B889337979F6092D8E0AD480BBCEC025F
:100A60002EBBC0CB60F5FDD9CFC9F9D9ED051E432A
:100A700077DD7C3EFB7C93DCDC5EDDFC022B379774
:100A8000B8B278C194AA87244F9521AAD2D7A903D6
:100A90007EAA47CC80068C1AC7D767B3C9E9BF6660
:100AA000D3D5EFC0E6397EAFE87B83DF80026A7082
:100AB000810348C656BFBF0C1C181265D54908A251
:100AC000288263A79354C6B3F93257494057F07848
:100AD000168477C095DEA5795052461E30720834D0
:100AE000941612DE44E45A354CA9704B2194AAD7CF
:100AF000B3022DF1999964302758DBA415ABEA8E27
:100B0000814932746B064844F0C39465B1C7BD8017
:100B10006FB210C91AB071B88970D3ECED255711B6
:100B2000A80DD8B66E19E8EA1F662C24AEE66A5EF8
:100B30004D497204D8FAB70E611B2A9D1D3004E599
:100B400043DA2175AAD9A4BA8EF25B4D2C91140D0B
:100B500093B2709A5508AF8E064E79C54CE963F78B
:100B600083656CA865C39AB405BB60BC6DEB562564
:100B7000B866A1E5106864A71A373FA6F0DE9C7539
:100B80003553FE8C85B87243EADABCA730C84C678F
:100B9000C3355A281A517E62A874AF48E5D66E0E46
:100BA000C89095B4E410CAA8C4328B65FDC00D3757
:100BB0000CAB70F43BB76C6B765BA5132E1FACEBE4
:100BC000D4D0DE1F790C800019991D163D66168B56
:100BD0006BE3DDE17230AF33906C2F1ABD711E0CE8
:100BE0000940057DE3DE24A96C3714831CC43B0552
:100BF000D3F9ABF409ED7465044AA5F41524D2E9E0
:100C00008E33A8B120621885C1915742A235494858
:100C10000AF3BEC01A0F366380651ABB94E1F3076E
:100C20008E9AC0D8FAFA867DDAE6CAD83535569259
:100C300057287E957330F86AB745FD4849CB07B011
:100C4000F294D173D0BD94EBCF470B60F7B480E53D
:100C5000AABF20AA86423BF572D452859CBAE9B954
:100C600082386BFD4D5BEF409825B09EE2DBB610FD
:100C70001B814B103647C7C5BED927AE1F85C68A14
:100C80009E05D7A0A8410D68C958CCDC588203E95D
:100C9000B0475114103232386FD074A120E8765A20
:100CA000097D6507C6991BF042D2A162002944D98B
:100CB0009766CE380772651A2BAAC483C394DF2ABD
:100CC0000CF29B9137DA91BBBA66DB54BD8E5E861F
:100CD00015ED67DFA4506440A85A49D400FAACE48B
:100CE000813B215A4AAE2AF4DB4AF60D464C4E4E61
:100CF000AD9014FBAA5FD22EDBE7F58EA4F81D158C
:100D000059AAB30BB5475FDDC3C18808D430F4E6F8
:100D1000A55B00CB241F01C8908074E8C1108BA193
:100D20008A955ABFAE0D428055570560DC031C9072
:100D3000DE1506BAECF3A9CE653A45A07EEDA85EB5
:100D40003E651F013C214ADD6154DF62BF447E479E
:100D5000C9836A465B1CD52DEA9C9A2012ABCE0A49
:100D600010824C2683655CC2340CC05FB51D3F9C6D
:100D70006D7EA27E95E9D8A86C0AA559A42D86138C
:100D8000CC1E8FA40CA8423278EC7F69042677C26F
:100D90004409A2D5418F08C31584F52858C5B18AE6
:100DA0007E7AB050E18F068B58D9030C168B257CC8
:100DB000472F2F2AB16F002E38B5E175B5EA677D50
:100DC0001241B4CAF8A8267E8BD673B4BA7535889A
:100DD000AE9C4C5E45F9BB7FDC5DAFFC51EDDA8A21
:100DE0006D8DBF85F09AED98A8BFC5C865CBE4416D
:100DF00057868E3C56F3AC23D7E71FEC48BD1A98B4
:100E0000A915FD1ED56D57A58DCB2057B693091199
:100E1000553774D40B55DF07E78CA9A9C41DA0CEA4
:100E2000677CA53A95AAB4FE1AD77A87FE48DCED0E
:100E30006FC3B56BB649F049DB3B5BAD5DAF6A7024
:100E4000F2BE86E273777887DF0A03E104AEFD9392
:100E5000180370192D8D492CEBD875583C52DB6A5C
:100E600021833841526C153981B07142A565025217
:100E7000D6D5FF3719D9D292FF9F6D0CDCDD341126
:100E8000BE8531C4F6A34D87FF89B3FE186733AF23
:100E900053A5EDC030D76799EA946568BF4007DA7B
:100EA000F19BB52B2CD35C90307DA5E38A89FC6C3B
:100EB000FA9B7413F83BBC92CDDF8074E1B142FB26
:100EC000C0EEFC668A67806FC36858D9FE95C1CEB4
:100ED000552EDF762AB95E0594D94BE765B22FF51A
:100EE0008FFC839C69EE6AD551214BBD40A810D67A
:100EF000B311E60E157114867A0AA4A41D2C1C4C9D
:100F0000797BF8002C6C098402BF64757E9DA5B6C0
:100F10007E3EDABEF6300B2B38EA3533FA5B4EEF05
:100F2000035A0C90AFFF7A0B35DDC3EC24084E66F4
:100F30000034F1DBDD2AE2DB190FA2C9CB7F00C050
:100F40002E0F2D930A00000011241FBECFEFD0E416
:100F5000DEBFCDBF14BE0FB6F894A8958091600097
:100F6000886180936000109260000FBE11E0A0E0E5
:100F7000B1E0E0E9FDE700E00BBF02C007900D9291
:100F8000AA32B107D9F722E0AAE2B1E001C01D926E
:100F9000A739B207E1F70E94982F0C94C63E0C9433
:100FA0000000CF93DF93CDB7DEB769970FB6F89403
:100FB000DEBF0FBECDBF0E94852F6B017C019E015D
:100FC0002F5F3F4F1901AE01475F5F4F5E874D872F
:100FD00080912601882309F4F0C50E94852FC61A46
:100FE000D70AE80AF90AF89480912601882351F07B
:100FF0008FEF8093260178940000F8948091260169
:101000008111F9CF78940E94852FA7019601260FB0
:10101000371F481F591F2B8B3C8B4D8B5E8B81E0FC
:101020008093260180914901882309F43EC01092E3
:1010300049018FEF898363E47EE1C1010E94602949
:101040008C01892B91F1D80156968C9182FFF3CFB8
:101050000E94852FF894F80137892689422F4B7F0B
:10106000468B78949F938F937F936F931F923F93B8
:1010700021701F922F9389811F928F932FE134E06B
:101080003F932F930E94FF336DB77EB7645F7F4F0E
:101090000FB6F8947EBF0FBE6DBF63E47EE1C10161
:1010A0000E9460298C01892B71F680914A01882366
:1010B000F9F010924A018FEF898365E57EE1C10165
:1010C0000E946029FC01892B99F0958D868D9813DB
:1010D000F4CFF894858D968D891709F457C67894C6
:1010E00065E57EE1C1010E946029FC01892B69F759
:1010F00080914C018823F9F010924C018FEF898385
:101100000BE014E065E371E2C1010E9460290097E1
:1011100091F0DC0158962C912F3FA1F7F894FC0137
:1011200026852111F1C4789465E371E2C1010E9422
:101130006029009771F780914E018823D9F11092B0
:101140004E018FEF898306E014E066EE75E2C1017F
:101150000E946029009771F1DC011E962C911E9768
:1011600023FFF3CFF894FC012685277F2687789408
:101170009C01265E3F4F3F932F9350968C9186950E
:10118000869586951F928F9389811F928F931F93C7
:101190000F930E94FF33EDB7FEB738960FB6F89461
:1011A000FEBF0FBEEDBF66EE75E2C1010E94602971
:1011B000009791F680915901882309F446C0109256
:1011C00059018FEF89830CEF13E064E770E3C101ED
:1011D0000E946029FC01892BC1F1848D80FFF5CF2D
:1011E000F89494812581368147815489658976896F
:1011F000A789B08DF18CE28CD38C848D8E7F848F07
:101200007894DF92EF92FF92BF93AF937F936F93A7
:101210005F934F933F932F939F9389811F928F9357
:101220001F930F930E94FF332DB73EB7205F3F4FB0
:101230000FB6F8943EBF0FBE2DBF64E770E3C10147
:101240000E946029FC01892B41F680914601882388
:10125000B9F1109246018FEF8B87AE01455F5F4F6A
:101260002A01F2E0DF2EAEE2EA2EB0ECFB2E62E5C0
:1012700079E1C2010E9460298C01892B09F1D80112
:1012800052968C9182FFF3CF80FF87C1C8010E94E4
:10129000D23AF801D28A148AE982FA82910142E0B4
:1012A00060E0848595850E94DA13C8010E94431A84
:1012B00062E579E1C2010E9460298C01892BF9F66F
:1012C00080914501882309F450C0109245018FEFA9
:1012D0008B879E01255F3F4F29016BE775E1C201B6
:1012E0000E9460295C01892B09F43FC0D501599601
:1012F0008C91599780FFF1CFF894F5016480758047
:1013000086809780818D8E7F818F789458968C917E
:10131000813009F499C308F479C3823009F439C3E0
:101320008330D9F6CB8419821A82910142E061E0C0
:10133000F501848995890E94DA1309811A811027A1
:1013400001271027F02FF670EF2E20E030E0B401D7
:10135000A301C5010E9406166BE775E1C2010E9458
:1013600060295C01892B09F0C1CF80915B01882342
:10137000B1F110925B018FEF8B879E01255F3F4F8C
:10138000290152E0D52E6DE2E62E78E0F72E64EECC
:1013900075E3C2010E9460298C01892B01F1D801FB
:1013A00052968C9182FFF3CF80FFF2C0C8010E9459
:1013B000D23AF801D28AE982FA82910142E060E0F1
:1013C000848595850E94DA13C8010E948A3664EEEE
:1013D00075E3C2010E9460298C01892B01F780917D
:1013E0004B01882309F45EC010924B018FEF8B876D
:1013F0009E01255F3F4F290177247A946DEE7FE1AE
:10140000C2010E9460298C01892B09F44BC0D801CC
:1014100050968C9182FFF2CFF894F80184809580E9
:10142000A680B780F488108A148A78948085918584
:10143000A285B385881A990AAA0ABB0AD801FF2097
:1014400091F052968C91F801E80FF11D758A168A79
:10145000178A8D5FF801828B8E3208F093C0FA9460
:10146000D801F110EECF51968C91882309F432C245
:10147000813009F415C3823009F434C4D80152967E
:101480008C9190E08E970CF4B9CF6B85C8010E94C7
:101490001E206DEE7FE1C2010E9460298C01892B24
:1014A00009F0B5CF80914D01882309F4C3C0109293
:1014B0004D018FEF8C8730E3632E42E0742E53E2B0
:1014C000952E6AE6C62E74E0872EE0E44E2E64E97F
:1014D00071E2CE010C960E9460297C01892B09F4EF
:1014E000A9C0F701868982FFF2CF80FF5BC0C701E8
:1014F0000E94D23AD70156967C92569799821A82C8
:101500001C96ED91FC911D97A10162E080810E94E3
:101510001817C9828A82D7011C96ED91FC911D97FC
:10152000A10162E080810E941817C9824A82D70116
:101530001C96ED91FC911D97A10162E080810E94B3
:101540001817BAE3BB87D7011C96ED91FC911D9744
:10155000810121E0AE01455F5F4F61E080810E9423
:101560008E169982B8E0BA83D7011C96ED91FC9152
:101570001D97A10162E080810E941817C7010E9497
:10158000DD22A5CF6B85C8010E941E20FA9468CF8A
:101590006B85C8010E94A936FACE6B85C8010E94EE
:1015A000621A65CE5C84F7010789D62CD01AAD2C5F
:1015B000B12C848995898A159B0508F4C4C2B4E7C7
:1015C000B98310E0085E1F4F0E0D1F1DD7011C963A
:1015D000ED91FC911D972D2DA10161E080810E946C
:1015E0008E16F7018789D80ED78A848995898A193A
:1015F0009B09958B848B652DC7010E94FC22D70126
:1016000054968D919C915597A816B90608F4FCC282
:10161000F701868981FF5BCFC7010E94D23AD701CB
:1016200056968C9156978B7F56968C93C7010E9445
:10163000DD224DCFA89580917301882329F080E4A5
:10164000809360001092730110913402112309F409
:101650006DC000912A0100FD12C0153008F466C06B
:10166000B0907401CB2C8BEF8B0D8C3308F4D2C26D
:10167000EEE7CE1609F43FC4016000932A01412F22
:1016800050E06EE770E084E791E00E94973E00979B
:1016900039F00E7F00932A018457914011E0180F12
:1016A00001FD0CC0902F926090932A018BE793E08C
:1016B0009F938F930E94FF330F900F90B12EDD24E4
:1016C000DA9480E0EB2CF12C18C090E0402F50E031
:1016D000481B590BB701680F791F6C587E4F8C5807
:1016E0009E4F0E94AD3E10922601802F9FB7F89426
:1016F00020913402121761F09FBF10913402012F24
:101700000B1919F79FB7F894209134021213F4CFF4
:10171000009334029FBFF1E0DF1208C08BE793E033
:101720009F938F930E94FF330F900F900E94852FFD
:101730006B017C012B893C894D895E89621B730B8F
:10174000840B950B8090330190903401A09035016B
:10175000B09036013FEF831A930AA30AB30A80922E
:10176000330190923401A0923501B092360140903D
:101770002F01509030016090310170903201460E7F
:10178000571E681E791E40922F01509230016092C0
:101790003101709232016115710541E084079105B4
:1017A00008F010C29B01AC010E94FA3DDC01CB01A4
:1017B00081509F4FAF4FBF4F892F9A2FAB2FBB2721
:1017C00040912B0150912C0160912D0170912E01BF
:1017D000840F951FA61FB71F84179507A607B70785
:1017E00018F48FEF9FEFDC0180932B0190932C0175
:1017F000A0932D01B0932E014091530150915401BB
:1018000060915501709156015C546B437B4F2F2DB5
:10181000C416D506E606270B27FDDACBBF93AF9398
:101820009F938F937F926F925F924F92BF92AF92EE
:101830009F928F9287E494E09F938F930E94FF334F
:101840006DB77EB7625F7F4F0FB6F8947EBF0FBE55
:101850006DBF8091530190915401A0915501B091B9
:101860005601C816D906EA06FB0698F480914F0186
:1018700090915001A0915101B09152010196A11D8A
:10188000B11D80934F0190935001A0935101B093EB
:101890005201C0925301D0925401E0925501F0924E
:1018A000560110922B0110922C0110922D011092D2
:1018B0002E0110922F0110923001109231011092DE
:1018C00032011092330110923401109235011092BE
:1018D00036017ECB82E389831A820E94852F6B01B9
:1018E0007C01910142E061E0F801848595850E94C8
:1018F000DA130E94852FDC01CB018C199D09AE09FA
:10190000BF0981329340A105B10508F0EFC099816C
:1019100097FD4AC1C818D908EA08FB08D8015396B0
:101920008C918823C1F02FEF280F41E050E002C0D6
:10193000440F551F2A95E2F7052E000C660B770B16
:10194000C40ED51EE61EF71E04C0F694E794D79485
:10195000C7948A95D2F7BFEFCB16D104E104F10406
:1019600008F086C12A8130E0220F331F892F90E0D2
:10197000982F8827990F822B932BF8012289E20F49
:10198000F11DC58A868B978B2D5FD80152962C93BB
:1019900075CDCB8481E089831A821B821C829101E0
:1019A00043E061E0848995890E94DA1369817A8134
:1019B0008B819C810E942C3EBB27A92F982F872FBB
:1019C0009C01AD01442755272F87388B498B5A8BB3
:1019D00037E039831A82910142E061E0D5015496E3
:1019E0008D919C9155970E94DA138A81982F9C7F44
:1019F0008F858170E92EE82A0F85188929893A890F
:101A0000B401A301C5010E94061667CCCB841982DC
:101A10001A821B821C82910144E061E0F5018489F5
:101A200095890E94DA1369817A818B819C810E9459
:101A30002C3EF62FF770EF2E8B019C01B401A30111
:101A4000C5010E94061649CC2B852F873CE03983BF
:101A50001A821B821C82910144E061E0848995898D
:101A60000E94DA1369817A818B819C810E942C3ECD
:101A70006B017C01BFE0B9831A82910142E061E011
:101A8000F501848995890E94DA139701860133272D
:101A9000CF84EA80B401A301C5010E9406161DCCC3
:101AA0008FE789838EEF8A830E94852F6F87788BDB
:101AB000898B9A8B910142E060E0F80184859585DD
:101AC0000E94DA130E94852F6B017C01DC01CB019F
:101AD0002F85388949895A89821B930BA40BB50B32
:101AE00081329340A105B10508F4CFC0D8015296C8
:101AF0008C91F801E80FF11D758A92E0968B178A98
:101B00008D5FF801828BBACC318D308F7894AC0127
:101B1000415F5F4F5F934F931F922F93FC01878923
:101B20001F928F9389811F928F931F930F930E940F
:101B3000FF332DB73EB7265F3F4F0FB6F8943EBF39
:101B40000FBE2DBFDFCAB7016E5E7F4F84859585BE
:101B50000E94BA2F9C01ABEABAEA0E94333E9695E6
:101B60008795969587959C01220F331F820F931FAF
:101B7000880F991FD70155969C938E9354978A1579
:101B80009B0508F441CD57960C9119CD2D853E85C6
:101B9000E217F30709F0EAC0809590E02A8530E06B
:101BA0008217930709F413C1D80152968C91F8015A
:101BB000E80FF11D758A93E0A1CFCB8ADC8AED8A0C
:101BC000FE8A2DCA6115710550E18507910508F05F
:101BD00008CE8B019C0101501F4F2F4F3F4F5527BF
:101BE000432F322F212F0E94FA3DDC01CB0140917F
:101BF0002B0150912C0160912D0170912E01840FC9
:101C0000951FA61FB71FE8CD10922601B1E0B09333
:101C10004D015DCCD09075018D2D807F803109F014
:101C200027CD1B1508F482CD8B2D90E0FC01ED58DB
:101C3000FE4F20812E3709F01BCDFC01EF58FE4FDF
:101C40004F01FC01EE58FE4F9081D4018C91292F59
:101C500030E07901F82A6DEF6B0D84E791E00E9486
:101C60009B2FE816F90609F448C1C090740100CD15
:101C7000F8018289E80FF11D758A91E0968B178A29
:101C80008D5FD80152968C93F9CB80EC89831A82B0
:101C9000910142E061E0D8011C968D919C911D97C5
:101CA0000E94DA1349812A81942F9227892F8295E5
:101CB0008F709827892F869586958927982F9695D6
:101CC000892780FD98C046FFA6C0F8018289E80FE9
:101CD000F11D758A25E0268B178A8D5FD8015296F3
:101CE0008C93CCCBD8011C96ED91FC911D97648010
:101CF000B281BF8723812F8B40E06B2F722F862DFF
:101D00000E94B2170E94852F6B017C0130E1C30E47
:101D1000D11CE11CF11C0E94852F2F2DC616D70661
:101D2000E806290B27FFF7CFF89441E06F857F89FC
:101D3000862D0E94B2170E94852F6B017C0178943A
:101D4000D101EAE01D92EA95E9F7F4E8F98323E28C
:101D50002A8391014AE061E0D8011C968D919C9103
:101D60001D970E94DA13FE01339685E09191892731
:101D700028E030E005C0880F2150310909F406CF72
:101D800087FFF9CF880FBDE18B27F6CF548965898E
:101D900090892189328943898F5F858F78946F93E9
:101DA0005F934F933F932F939F9389811F928F93BC
:101DB0008AE194E09F938F930E94FF33EDB7FEB7C3
:101DC0003A960FB6F894FEBF0FBEEDBF76C989856F
:101DD00084FF18C08B8187FD60C0D80152968C911A
:101DE000F801E80FF11D758AB4E0B68B178A8D5F94
:101DF000F801828B43CBF8018289E80FF11D758AC7
:101E000093E03CCFD80152968C91F801E80FF11D78
:101E1000758AB5E0EACFC818D908EA08FB08F801C6
:101E200033893323C9F08FEF830F61E070E002C084
:101E3000660F771F8A95E2F7CB01092E000CAA0BDB
:101E4000BB0BC80ED91EEA1EFB1E04C0F694E79415
:101E5000D794C7943A95D2F77FEFC716D104E1041F
:101E6000F10408F03FC0842F90E0AC01542F4427C8
:101E7000550F550FF4E02F9FC0011124842B952B93
:101E8000D80152962C91F801E20FF11DC58A868B7C
:101E9000978B2D5FF801228BF1CAC818D908EA0880
:101EA000FB08F1E5CF16F5E5DF06E104F104D0F417
:101EB0002C8130E0220F331F90E0982F8827990F54
:101EC000822B932BD80152963C91F801E30FF11D20
:101ED0002F8126952F73258B868B978B3D5FF8017D
:101EE000328BCCCAD80152968C91F801E80FF11DC3
:101EF000758A91E003CE11E0E1CB802F8D7F809336
:101F00002A0180910901D81202C181E08D0D8F70E4
:101F1000806180930901B6E78B16B1E09B0609F05A
:101F200008F4BEC0E6E7F1E0B98ECDB6DEB68F01AB
:101F30000F5F1F4F2081222309F4E6C0EAE7F3E098
:101F40008491281708F0E0C030E0220F331F220FE1
:101F5000331F220F331FF901ED50FF4FE4914DB7AE
:101F60005EB764E0E69F4019510911240FB6F8945A
:101F70005EBF0FBE4DBF8DB79EB70196F901EB5006
:101F8000FF4F4491F901EA50FF4F65917491FB01B5
:101F9000640F711DAC01D88ACF86988F8F8B6E1716
:101FA0007F0709F482C08016910608F46EC0A491E0
:101FB000A53028F1A73009F068C02801BFEF4B1AFF
:101FC0005B0AD801AC9082010A0D111D80169106A2
:101FD00008F45BC0B12CC12CD12CDA01AD92BD92BA
:101FE000CD92DC921397612C712C14964D925D92D8
:101FF0006D927C921797485F5F4F3196D0CF7A01F0
:1020000084E0E80EF11C68019FEFC91AD90AD801D3
:102010001C91912F9F77492E512C612C712C012FEF
:1020200000760036A9F117FF3EC086010F5F1F4FF3
:10203000D80111978C91440C551C661C771C440CDC
:10204000551C661C771C440C551C661C771C440CE4
:10205000551C661C771C440C551C661C771C440CD4
:10206000551C661C771C440C551C661C771C982F4D
:102070009F77492A87FDDACFDA014D925D926D9202
:102080007C921397A70131968ACF87E00E94893D01
:10209000B0EE4B2A55245A94652C762CC4CFB98CBB
:1020A000DD24D3940ECB8601E7CFCF84D8888F89E7
:1020B000988D40912701442331F0F901EC50FF4FF6
:1020C000E491E0FF11C028503F4FF9012591349170
:1020D000F90109950FB6F894DEBE0FBECDBE081506
:1020E0001905E8F6F80121CF809128011F928F93FE
:1020F000E6E5F4E0FF93EF930E94FF330FB6F89408
:10210000DEBE0FBECDBEEBCF85E00E94893D1B2D0C
:10211000CDCACF93DF93EC0166EA70E188810E941B
:10212000B329FC018C819D81AE81BF81892B8A2BD3
:102130008B2B51F420E0F89494A59D7F922B94A7CB
:102140007894DF91CF91089522E0F5CF0F931F93FC
:10215000CF93DF938C014DE250E066EA70E1FC0121
:1021600080810E948429EC01F801848518160CF006
:1021700041C064E06CA7F80184810E94332E6A8F0D
:102180007B8F8C8F60E0F80180850E94332E6D8FED
:102190007E8F8F8F80E090E0A0E0B0EC88A399A3C1
:1021A000AAA3BBA3F80180899189A289B3898E8BE8
:1021B0009F8BA88FB98F6BE070E0CE0184960E9450
:1021C000152A8E899F89A88DB98D8997A105B1059A
:1021D00048F080EB91E19B838A83DF91CF911F913F
:1021E0000F9108958CA580618CA7DF91CF911F91ED
:1021F0000F91089560E0BECFCF93DF93EC0166EAC4
:1022000070E188810E94B329FC018C819D81AE819F
:10221000BF81F8944685578560897189452B462B87
:10222000472B79F484839583A683B783828B938B22
:10223000A48BB58B84A5877F84A77894DF91CF91F9
:10224000089586E10E94893D0F931F93CF93DF93FA
:102250008C0166EA70E1DC018C910E94B329EC01EB
:102260000E942F2AFC01D80114964D915D916D9129
:102270007C911797428353836483758318968D915D
:102280009C91199791878087892B09F466C0D801A2
:102290001C968D919C911D97978386831286F89446
:1022A0008CA5282F217081FB992790F9291729F0F7
:1022B00091E089279285916092874E855F85688934
:1022C0007989452B462B472B59F583FD19C08CA7DF
:1022D000118210828CA19DA1892BA9F1AEA1BFA171
:1022E000ED93FC93FFA3EEA3CE010E942B33CE010E
:1022F0000E94243B7894DF91CF911F910F91089514
:10230000809147019091480191838083F093480127
:10231000E09347017894DF91CF911F910F91089539
:102320008CA7118210828CA19DA1892B89F0AEA16E
:10233000BFA1ED93FC93FFA3EEA37894DF91CF911F
:102340001F910F910895FFA3EEA3FDA3ECA3CCCFA3
:10235000FFA3EEA3FDA3ECA3CDCF87E10E94893DAF
:10236000CF92DF92EF92FF920F931F93CF93DF9361
:10237000EC01EA8DFB8D8C8D80830E94852F0E8968
:102380001F89288D398D6B017C01C00ED11EE21E84
:10239000F31E8E859F85A889B9890197A109B10986
:1023A0008E879F87A88BB98B80FF0EC0CC82DD8281
:1023B000EE82FF8281E0DF91CF911F910F91FF901C
:1023C000EF90DF90CF900895892B8A2B8B2B59F1BA
:1023D000488559856A857B858A899B89AC89BD89B1
:1023E000840F951FA61FB71F8A8B9B8BAC8BBD8B51
:1023F0000C851D85012E000C220B330B400F511F45
:10240000621F731F488759876A877B872B2F8C151C
:102410009D05AE052F0927FDC9CF8C839D83AE8313
:10242000BF8381E0C8CFCE010E942B33811102C04F
:1024300080E0C1CF4C815D816E817F81972F4C15EB
:102440005D056E059F0997FFB6CF4C195D096E09B2
:102450007F094038514C6F4F7F4F0CF0A7CF88E178
:102460000E94893D0F931F93CF93DF938C0180913E
:102470003F0190914001892B09F04BC060913E01D2
:1024800070E0623071052CF482E080933E0162E0DE
:1024900070E0E0913A01F0913B014DB75EB74150D9
:1024A0005F4F44275A959F01C0E0D0E0C901860FD5
:1024B000971F4817590730F121969C01C115A4E0D8
:1024C000DA07A1F78E1B9F0B0E94DC33D0934001EB
:1024D000C0933F0190933D0180933C010E94CB2922
:1024E000F80180819181A281B38180934101909311
:1024F0004201A0934301B0934401DF91CF911F911A
:102500000F910895209711F0C901DCCF80E10E945E
:10251000893D8DE00E94893DCF9320913801309113
:102520003901232B91F4FC01C0818C2F90E0880F9E
:10253000991F880F991F0E94DC3390933901809373
:102540003801C0933701CF9108958AE00E94893DF8
:1025500080913F01909140019F938F9321E03091B2
:102560002701311101C020E01F922F9320914401D7
:102570002F93209143012F93209142012F9320917B
:1025800041012F9321E0892B09F420E01F922F9322
:1025900088E394E09F938F930E94FF338DB79EB79B
:1025A0000C960FB6F8949EBF0FBE8DBF089546E0FF
:1025B00050E069E073E1FC0180810C948429CF92A2
:1025C000DF92FF920F931F93CF93DF93EC0169E0AB
:1025D00073E18C810E94B3296C01F8840F2D10E007
:1025E000A8014D5F5F4F6FED72E188810E948429E1
:1025F000FC01D182C082F2826C857D85A8010396A0
:10260000DF91CF911F910F91FF90DF90CF900C94AD
:10261000A43EFF920F931F93CF93DF938C0146E06C
:1026200050E069E073E1FC0180810E948429EC01A3
:10263000F801F08461E0F11060E0F80184810E940B
:10264000332E6A837B838C838D81F11009C091E0E6
:10265000892B8D83DF91CF911F910F91FF9008956A
:1026600099E0892B8D83DF91CF911F910F91FF907E
:1026700008958BE10E94893D8F929F92AF92BF9205
:10268000FF920F931F93CF93DF93EC0169E073E107
:1026900088810E94B3298C01F88483E08F1508F4A7
:1026A00084C0F8018581867009F07FC08C849D8488
:1026B000AE84BF848C819D81AE81BF81892B8A2BA2
:1026C0008B2B09F074C0E2E6F4E0A591B491119669
:1026D0008C9184FD04C060E08CE00E94332E60E0A9
:1026E0008FE00E94332E60E08DE00E94332E60E088
:1026F0008EE00E94791780E58CBD1DBC8114F2E14B
:102700009F06FAE7AF06B10408F041C0811489E0E2
:1027100098068DE3A806B10418F5E0E88E16E4E803
:102720009E06EEE1AE06B104C0F5F0E48F16F2E4C9
:102730009F06FFE0AF06B10468F580E2881681EAE3
:10274000980687E0A806B10458F590E0E0E98E16F7
:10275000E0ED9E06E3E0AE06B10428F583E002C09A
:1027600090E080E0CF2DCC0FCC0FC065C82BF801D6
:10277000C0839183858184608583DF91CF911F9190
:102780000F91FF90BF90AF909F908F90089591E030
:1027900080E0E8CF90E081E0E5CF91E081E0E2CF1A
:1027A00091E082E0DFCF82E0DDCF0E9439138EE23C
:1027B0000E94893D6F927F928F929F92AF92BF92BB
:1027C000CF92DF92EF92FF920F931F93CF93DF93FD
:1027D0004C01E62E142F6901DC0115967C901597AB
:1027E000872D867009F451C071FC39C0F4019081C5
:1027F00081819CBD8DBDF72DF1706F2E70FCC8C01E
:10280000EE2009F49CC08FEF810F112351F0F601E7
:1028100090819EBD0DB407FEFDCF9EB59193815072
:10282000B8F7662091F1072D069506950695402F7D
:1028300040954170D40112966D917D918C91DF91FC
:10284000CF911F910F91FF90EF90DF90CF90BF90AD
:10285000AF909F908F907F906F900C94B217ED91F6
:10286000FC91418542706681778180850E94B21714
:10287000B72DB1706B2E70FC17C0D401CD91DC91D7
:10288000AA24AA94A10E111126C0DF91CF911F9105
:102890000F91FF90EF90DF90CF90BF90AF909F90FF
:1028A0008F907F906F900895072D06950695069559
:1028B000402F4170F4016281738184810E94B217BC
:1028C000D401CD91DC91AA24AA94A10E112309F47C
:1028D000AECF66246394B12C8FEFA81AB80AAC0C63
:1028E000BD1CD601FC9008E010E0898580FF35C052
:1028F000EE81FF81888580834F2D40786B817C81BC
:102900008D810E94B217FF0CEE81FF818885808344
:10291000110FE881F98190818A81892391E009F47E
:1029200090E0192B015009F7EE2011F0F601108309
:10293000FFEFCF1ADF0AAC14BD0499F672CFF6018F
:102940009601210F311D2E173F0709F46ACF81919F
:102950008EBD0DB407FEFDCFF6CF4F2D40786B81B5
:102960007C818D810E94B217FF0CEE81FF818885EA
:102970008083110FE881F98190818A81892391E018
:1029800009F490E0192BEE81FF8188858083CACFFE
:1029900073FA442740F9F4016281738184810E94B3
:1029A000B217662463942CCFCF93DF93EC0169E0D8
:1029B00073E188810E94B329288539854C8160E0C4
:1029C000DF91CF910C94DA13FF920F931F93CF9363
:1029D000DF93EC01188169E073E1812F0E94B32934
:1029E0000C81F884C9852F2D3C2F402F61E00E9477
:1029F000DA13CF93FF921F920F931F921F9385E1DB
:102A000094E09F938F930E94FF338DB79EB70896F3
:102A10000FB6F8949EBF0FBE8DBFDF91CF911F916F
:102A20000F91FF900895FC0192899460928B10920F
:102A3000260181E080935B0180E00895FC01109203
:102A4000260181E080934501818D8160818F4481E1
:102A500055816681778180859185A285B385840FB4
:102A6000951FA61FB71F84839583A683B78381E034
:102A700008950F931F93CF93DF938C016BE775E15C
:102A8000FC0180810E94B329EC010E94D23AF80136
:102A900084819581A681B7818C839D83AE83BF831A
:102AA00080859185A285B38588879987AA87BB870A
:102AB000892B8A2B8B2B29F4DF91CF911F910F91BA
:102AC000089584859585A685B7858C879D87AE8773
:102AD000BF8780899189A289B389888B998BAA8BBA
:102AE000BB8B84898E8B1F8ACE01DF91CF911F9182
:102AF0000F910C94243BFF920F931F93CF93DF937E
:102B0000EC01F88483E08F15E0F04AE150E06BE7D8
:102B100075E188810E9484298C018EE195E1F8019C
:102B20009383828369E073E18C810E94B329F80169
:102B3000958B848BF08EDF91CF911F910F91FF9039
:102B4000089587E20E94893D8F929F92AF92BF9233
:102B5000EF92FF920F931F93CF93DF9300D0CDB7E7
:102B6000DEB77C0162E579E1FC0180810E94B32936
:102B70008C018FEA89831A820E94852F4B015C01A8
:102B80009E012F5F3F4F42E061E0F801848595850B
:102B90000E94DA130E94852FF80121892F93208942
:102BA0002F932A812F711F922F9323891F922F9386
:102BB00027852F9326852F93DC01CB01881999094E
:102BC000AA09BB09BF93AF939F938F93BF92AF9214
:102BD0009F928F92F70180811F928F9387EF93E0EE
:102BE0009F938F930E94FF330FB6F894DEBF0FBE02
:102BF000CDBF0F900F90DF91CF911F910F91FF905C
:102C0000EF90BF90AF909F908F9008958F929F927A
:102C1000AF92BF92CF92EF920F931F93CF93DF9318
:102C2000EC01480159011F92EF92BF92AF929F921F
:102C30000F937F936F935F934F931F92CF928DEE7D
:102C400093E09F938F930E94FF338DB79EB70E96AC
:102C50000FB6F8949EBF0FBE8DBFE11009C08C85E2
:102C60009D85AE85BF8588169906AA06BB0688F4A1
:102C70008F898F5F8F8B9E898917B0F4DF91CF91F9
:102C80001F910F91EF90CF90BF90AF909F908F903A
:102C9000089588899989AA89BB8988159905AA0503
:102CA000BB0530F31F8AEACF809127018111FACF4B
:102CB00086E20E94893DCF92DF92EF92FF926B01F4
:102CC0007C0109C00E94852F292F6C157D058E057A
:102CD0002F0927FF09C08091BC0087FFF3CFFF9029
:102CE000EF90DF90CF90089580E30E94893D24EA21
:102CF0002093BC000E945B168091B90090E0A0E098
:102D0000B0E080319105A105B10521F00897A1053A
:102D1000B10509F408958FE20E94893D7F928F9258
:102D20009F92AF92BF92CF92DF92EF92FF920F935A
:102D30001F93CF93DF93782EC62F942EB52E822E1D
:102D40000E94852F6B017C0120E8C20E28E3D21E71
:102D500021E0E21EF11CC701B6010E9477167092B5
:102D6000BB0084E88093BC00C701B6010E945B16DB
:102D7000AA24AA94AC0ECC23B1F0C92DDB2DB12C22
:102D80008FEFA81AB80AAC0EBD1E94E8992E89914F
:102D90008093BB009092BC00C701B6010E945B16F5
:102DA000AC16BD06A1F7C701B6010E947716872DA4
:102DB00081608093BB0084E88093BC00C701B601AA
:102DC0000E945B16DFEFD80D882009F15801CD2F46
:102DD00084EC982ECC2369F09092BC00C701B60118
:102DE0000E945B168091BB00F50181935F01C15089
:102DF00099F7F801ED0FF11DEF0184E88093BC0015
:102E0000C701B6010E945B168091BB00888384E9EC
:102E10008093BC00DF91CF911F910F91FF90EF90B5
:102E2000DF90CF90BF90AF909F908F907F9008954C
:102E3000BF92CF92DF92EF92FF920F931F93CF93A7
:102E4000DF93D82FC62FB42E152F0E94852F6B012C
:102E50007C0120E8C20E28E3D21E21E0E21EF11C14
:102E6000C701B6010E947716D093BB0084E8809317
:102E7000BC00C701B6010E945B160FEF0C0FCC23FC
:102E8000A9F0CB2DD12F10E00F5F1F4F0C0F1D1F8E
:102E900084E8B82E89918093BB00B092BC00C70132
:102EA000B6010E945B16C017D107A1F784E9809391
:102EB000BC00DF91CF911F910F91FF90EF90DF90B9
:102EC000CF90BF900895FB012FB7F894928114160C
:102ED00044F4982B809592839181892381832FBF1D
:102EE00008958095982392839181892381832FBFB0
:102EF00008958032A0F567FD32C0E82FE695E6958B
:102F0000E695F0E0EE0FFF1FE05AFB4FA591B4915C
:102F1000109729F1877021E030E0A90102C0440F29
:102F2000551F8A95E2F7CA014FB7F89412963C9163
:102F30001297662381F0382B282F209512963C9308
:102F4000129711963C911197232311962C93119768
:102F50004FBFBD010895282F20953223EFCF8BE27C
:102F60000E94893DFB012FB7F8949281411105C061
:102F70008095892382832FBF0895892B82832FBF59
:102F80000895FB012FB7F8949281411109C0382FA1
:102F90003095932392839181892B81832FBF08954C
:102FA000982B92839181892B81832FBF0895CF9293
:102FB000DF92EF92CF93DF93EC0161E088859985F2
:102FC000AA85BB85892B8A2B8B2B09F460E08C8129
:102FD0000E94332E6B01E82E44E250E067ED77E16A
:102FE00088810E948429FC01C48AD58AE68A21E06E
:102FF000488559856A857B85452B462B472B09F4E7
:1030000020E04C855D856E857F85452B462B472BC3
:10301000B1F430E0232BFC0123A3488959896A8944
:103020007B89478B508F618F728F6AE070E04F967B
:10303000DF91CF91EF90DF90CF900C94152A30E183
:10304000E9CFCF93DF93EC0167ED77E188810E94B0
:10305000B329F894FC01278D30A1232B69F44C810E
:103060005D816E817F81FC01438F548F658F768FE8
:103070007894DF91CF91089584E10E94893D8F92E9
:103080009F92AF92BF92CF92DF92EF92FF921F93E7
:10309000CF93DF93EC01EF8CF8A0E114F10409F475
:1030A000F0C0F7018081918198A38F8F86809780EF
:1030B000A084B18411E081149104A104B10409F445
:1030C000A1C06C897D898E89412F0E94B2178091A1
:1030D000470190914801F70191838083F092480164
:1030E000E092470181149104A104B104E9F08B8DB1
:1030F0009C8DAD8DBE8D88169906AA06BB06A0F4E0
:103100004F89588D698D7A8D41155105610571057D
:1031100009F45BC08C819D81AE81BF81480F591F2E
:103120006A1F7B1F166022C08BA131E081149104BD
:10313000A104B10409F068C084FB992790F921E04B
:103140009227391709F443C04F89588D698D7A8DBC
:103150004115510561057105D1F18C819D81AE81CB
:10316000BF81480F591F6A1F7B1F1460EF8DF8A1A4
:10317000309709F077C02BA1488B598B6A8B7B8BDA
:103180002071212B2BA311FF5FC0880D991DAA1D53
:10319000BB1D12FD52C02DE13DE23B832A838C838F
:1031A0009D83AE83BF8388869986AA86BB868B8DD6
:1031B0009C8DAD8DBE8D88199909AA09BB098C8794
:1031C0009D87AE87BF8781E011C012608BA1EF8D14
:1031D000F8A13097D9F4188A198A1A8A1B8A807143
:1031E000812B8BA3812F827011FD34C0DF91CF9191
:1031F0001F91FF90EF90DF90CF90BF90AF909F9086
:103200008F90089510E05DCF30E096CF42815381DA
:1032100064817581488B598B6A8B7B8B8071912F70
:103220009460892B8BA311FF0FC08C819D81AE818F
:10323000BF81880D991DAA1DBB1D2B2F84179507D3
:10324000A607270B27FDA7CF4C835D836E837F8363
:1032500081E0CCCF40E050E0BA018C819D81AE810D
:10326000BF8193CFC280D380E480F580872F4C1537
:103270005D056E058F0987FD07C08BA1B701A6010B
:10328000C9CF85E10E94893D83E10E94893DFC010F
:1032900092899460928B1092260181E0809346017E
:1032A00080E008950F931F93CF93DF938C0145E443
:1032B00050E062E579E1FC0180810E948429EC0103
:1032C00087E499E19B838A8369E073E1F801848153
:1032D0000E94B3299D878C87DF91CF911F910F9119
:1032E0000895CF93DF93EC0145969F938F938B893D
:1032F0001F928F938F858F938E858F931F926F93DD
:1033000082EF93E09F938F930E94FF331B8A8E85F9
:103310009F8501969F878E878DB79EB70A960FB6B9
:10332000F8949EBF0FBE8DBFDF91CF910895CF93CC
:10333000DF93EC016B817C818D8140E00E94C1179D
:103340008D859E850E94073A6E817F81888541E048
:103350000E9463178D859E850E94073A69857A854C
:103360008B8541E0DF91CF910C9463170F931F93EE
:10337000CF93DF93EC01062F18E01DC06B817C8199
:103380008D8140E00E94C117000F8D859E850E94AF
:10339000073A6E817F81888541E00E9463178D85A1
:1033A0009E850E94073A688179818A8140E00E9467
:1033B000C117115049F007FFE1CF69857A858B85E8
:1033C00041E00E946317E0CF69857A858B8541E0F3
:1033D0000E9463178D859E850E94073A6E817F81CA
:1033E000888541E00E946317E985FA8510818B8505
:1033F00018238D859E850E94073A688179818A818C
:1034000040E00E94C11769857A858B8541E00E9462
:103410006317111105C0DF91CF911F910F9108958E
:1034200085E20E94893D1F93CF93DF93EC01162F15
:103430008D859E850E94073A69857A858B8541E056
:103440000E9463176E817F81888541E00E94631727
:103450008D859E850E94073A6B817C818D8140E03D
:103460000E94C1178D859E850E94073A68817981E7
:103470008A8140E00E94C117612FCE01DF91CF9178
:103480001F910C94B6190F931F93CF93DF93EC0108
:10349000F8940E94852F088519852A853B85DC01D3
:1034A000CB01800F911FA21FB31F8C839D83AE831E
:1034B000BF83CE010E94243B7894DF91CF911F916E
:1034C0000F9108959F92AF92BF92CF92DF92EF92A9
:1034D000FF920F931F93CF93DF93CDB7DEB729975A
:1034E0000FB6F894DEBF0FBECDBF8C01962E9E01A5
:1034F0002F5F3F4F87E0F90111928A95E9F78FEA34
:103500008887198688EA8983F801C388D12C7601D7
:10351000F5E1EF0EF11CE00EF11E47E061E0F8016D
:10352000848595850E94DA139E01285F3F4F42E013
:1035300061E0F801848595850E94DA138985F82F6A
:10354000FF73AF2E8074B82EF801EC0DFD1D8A813B
:10355000858B8B81F70181838C8182838D8183832D
:103560008E8184838F818583F80183898A5F838B31
:103570008B3270F5BB2031F0F8018089918901967A
:10358000918B808BA11004C0F8018489882329F1D4
:10359000F801828981FF0AC0C8010E94D23AF8016D
:1035A00082898B7F828BC8010E94431A29960FB6AD
:1035B000F894DEBF0FBECDBFDF91CF911F910F9169
:1035C000FF90EF90DF90CF90BF90AF909F900895C5
:1035D000692DC8010E947119CDCF1092260181E09A
:1035E00080934601E3CF4F925F926F927F928F92CA
:1035F0009F92AF92BF92DF92EF92FF920F931F9331
:10360000CF93DF9300D000D0CDB7DEB77C01FC01B3
:10361000D08062E579E18D2D0E94B3298C01F701FC
:1036200080859185A285B385892B8A2B8B2BB1F15F
:10363000C8010E94D23AF70184819581A681B781A1
:10364000F80184839583A683B783F70180859185EC
:10365000A285B385F80180879187A287B38781E02F
:10366000828B118A108A17861686138A148AC801DB
:103670000E94243B0F900F900F900F90DF91CF91FD
:103680001F910F91FF90EF90DF90BF90AF909F90B0
:103690008F907F906F905F904F900895C8010E9427
:1036A000D23AF801128A81E0848B6D2DC8010E9404
:1036B000621A8EE28B831C820E94852F2B013C01B3
:1036C0009E012D5F3F4F42E060E0F80184859585C3
:1036D0000E94DA130E94852F4B015C018FEA8983D7
:1036E0001A829E012F5F3F4F42E061E0F80184851E
:1036F00095850E94DA138A818F71F82EF8018389EB
:10370000882331F06D2DC8010E947119F801838959
:10371000F80191899F9390899F931F92FF921F9226
:103720008F9387858F9386858F93D501C4018419E4
:103730009509A609B709BF93AF939F938F937F9283
:103740006F925F924F921F92DF9287EF93E09F9369
:103750008F930E94FF330FB6F894DEBF0FBECDBF2C
:1037600089CF9F92AF92BF92CF92DF92EF92FF925A
:103770000F931F93CF93DF93EC01C62E942ED52E7B
:10378000B22E78016C85862F8160A82EC11085C06D
:103790006A2DCE010E94131A8FEF8B0DBB2009F406
:1037A0006EC06701C80ED11C69857A858B8541E0A2
:1037B0000E94631708E010E08D859E850E94073AFD
:1037C0006E817F81888541E00E9463178D859E858B
:1037D0000E94073A110FE985FA8590818B8589232C
:1037E00091E009F490E0192B688179818A8140E0A9
:1037F0000E94C117015001F769857A858B8541E0E8
:103800000E946317CE14DF04F1F06B817C818D81FF
:1038100040E00E94C1178D859E850E94073A6E8107
:103820007F81888541E00E9463178D859E850E9477
:10383000073A688179818A8140E00E94C117F701C7
:1038400011937F01B1CF69857A858B8541E00E9414
:1038500063178D859E850E94073A6E817F818885DA
:1038600041E00E9463178D859E850E94073A68811A
:1038700079818A8140E00E94C117F6011083CE0150
:10388000DF91CF911F910F91FF90EF90DF90CF903C
:10389000BF90AF909F900C949719CE010E94131A7D
:1038A000092D1D2DCA94D12CEFEFCE1ADE0AC00EC1
:1038B000D11EF80161918F01CE010E94B619C01688
:1038C000D106B9F765CFDF92EF92FF920F931F9366
:1038D000CF93DF937C01C62FD42E152FFC01648576
:1038E0000E94131A0FEF0C0FCC2371F0CD2DD12FA6
:1038F00010E00F5F1F4F0C0F1D1F6991C7010E9441
:10390000B619C017D107C9F7C701DF91CF911F9131
:103910000F91FF90EF90DF900C9497198EE10E9429
:10392000893D0F931F93CF93DF93FC01A189B28947
:103930008D919C911197928B818B16968D919C9174
:103940001797C085D185228521113FC02FB7F894E4
:10395000AC015527598348832FBF209147013091EF
:10396000480111963C932E93B0934801A0934701D0
:10397000A189B289109759F5278530898217930755
:1039800041F083859485A585B6850097A105B1058D
:1039900031F480E0DF91CF911F910F910895448120
:1039A000558166817781840F951FA61FB71F848379
:1039B0009583A683B7838EE89CE19383828381E01D
:1039C000DF91CF911F910F9108958883C6CF1296F2
:1039D0004D915D916D917C91159727853089821766
:1039E000930741F083859485A585B6850097A10549
:1039F000B10551F4448355836683778381E0DF9179
:103A0000CF911F910F9108950481158126813781EF
:103A1000800F911FA21FB31F2B2F84179507A60796
:103A2000270B27FFE7CF8DE10E94893DEF92FF92A0
:103A30000F931F93CF93DF937C0160E97DE1DC015D
:103A40008C910E94B3298C010E942F2AEC01F7016E
:103A500084819581A681B7818A839B83AC83BD8352
:103A6000808591859F838E83F89419821882D8016E
:103A700051968D919C915297892BB9F15396ED9166
:103A8000FC915497D183C0835496DC93CE93539783
:103A900080E090E07894892B39F4DF91CF911F91E9
:103AA0000F91FF90EF900895C8010E94D23AD8017B
:103AB00012968D919C9113978E589C41F1F08A81BA
:103AC0009B81AC81BD8121E93CE1F80133832283F4
:103AD00084839583A683B783C801DF91CF911F911B
:103AE0000F91FF90EF900C94243BF801D48BC38B83
:103AF000D28BC18B81E090E0CDCF8A819B81AC815C
:103B0000BD81F8014481558166817781272F48174F
:103B100059076A072B0B27FFD6CF8DE10E94893DFD
:103B2000CF92DF92EF92CF93DF93EC0148855985D6
:103B30006A857B852C858C810E94502C6B01E82E38
:103B400045E150E060E97DE188810E948429FC0123
:103B5000C086D186E28688899989908B87878C89EF
:103B60009D89AE89BF8983879487A587B68781E9B8
:103B70009CE19383828368E070E0CF014196DF91FE
:103B8000CF91EF90DF90CF900C94152A0F931F9355
:103B9000CF93DF938C0165E57EE1FC0180810E947B
:103BA000B329EC010E94D23A909100018A8D9813BA
:103BB00003C08FEF80930001F80184819581A68175
:103BC000B781888B998BAA8BBB8B8C839D83AE83AB
:103BD000BF8380859185A285B3858C879D87AE87BD
:103BE000BF8784858E8F91E0980F9D8F4089518982
:103BF00062897389488759876A877B8724893589D1
:103C00003F8B2E8B208D318D398F288F948D9C8FFB
:103C1000811105C0DF91CF911F910F910895CE01C1
:103C2000DF91CF911F910F910C94243BEF92FF9263
:103C30000F931F93CF93DF938C0163E47EE1FC012C
:103C400080810E94B329EC01F8948E8980FF13C013
:103C50007E01F8E0EF0EF11CC7010E94D23AF80194
:103C600084819581A681B7818C879D87AE87BF8728
:103C7000C7010E94243B7894DF91CF911F910F914F
:103C8000FF90EF90089549E150E063E47EE1FC018C
:103C900080810E94842929E337E2FC013383228357
:103CA00024E537E2338722870895CF93DF93DC0141
:103CB00014969C911497C0E0D0E0FE01E058FC4FB0
:103CC000E4919E1739F02196C830D105B1F78DE205
:103CD0000E94893D87E980937A0030917E0081E0DF
:103CE00090E00C2E01C0880F0A94EAF7832B809392
:103CF0007E004FE150E065E57EE18C910E948429D1
:103D0000FC018BE89EE193838283C28F81E0858FE3
:103D1000DF91CF910895FC0180917A0086FF0EC05B
:103D200084819581A681B7818853984FAF4FBF4F4B
:103D300084839583A683B78381E00895828D9091D3
:103D40000001981761F09F3F59F780930001877039
:103D5000806480937C0087ED80937A00E1CF8FEFC1
:103D6000809300012091780030917900858D968DA7
:103D7000891780F544895589240F351F8F5F358B4E
:103D8000248B858F891760F18689978928173907D1
:103D9000C8F1808D918D82179307A0F1138E109238
:103DA000260181E080934A014089518962897389A3
:103DB00080859185A285B385840F951FA61FB71FA7
:103DC000808B918BA28BB38B84839583A683B783DF
:103DD00081E0089581E0358B248B858F8917A0F6CB
:103DE000448155816681778184859585A685B785CF
:103DF000840F951FA61FB71F84839583A683B7835F
:103E000081E00895838D8F5F838F948D891738F2B9
:103E1000809127018111C2CF8AE10E94893D1F93C1
:103E2000CF93DF93EC01162FAC89BD891097B9F0C1
:103E30001296ED91FC9113978D919C9111979D8B0A
:103E40008C8B11961C921E9213961C921E921297A6
:103E5000612FCD010995AC89BD89109749F7109262
:103E6000260181E080934901DF91CF911F91089550
:103E7000EF92FF921F93CF93DF937C01FC0110819F
:103E800063E47EE1812F0E94B329EC01F8948E89CE
:103E900080FF09C0F70164816F8B8A7F84608E8BFD
:103EA000CE010E940F1FCE010E94D23ACE01089689
:103EB0000E94D23A1E8A8F8978941F921F921F9275
:103EC0001F921F928F931F921F921F921F938FE139
:103ED00094E09F938F930E94FF338DB79EB70C960B
:103EE0000FB6F8949EBF0FBE8DBFDF91CF911F918B
:103EF000FF90EF900895CF93DF93EC010E94D23AA8
:103F0000CE0108960E94D23AEC89FD89309751F093
:103F1000908181811382128211821082E92FF82F01
:103F20003097B1F71D8A1C8A188E1F8A1E8ADF916E
:103F3000CF9108950F931F93CF93DF938C0163E488
:103F40007EE1FC0180810E94B329EC01F8940E947B
:103F50007B1F81E08E8BF80184819581A681B781DA
:103F60008C839D83AE83BF8380859185A285B38535
:103F7000888B998BAA8BBB8B892B8A2B8B2B19F067
:103F8000CE010E94243BF8018485888F7894DF91CC
:103F9000CF911F910F910895FC01808982FD19C076
:103FA0008460808B1092260181E080934B014481D4
:103FB00055816681778180859185A285B385840F3F
:103FC000951FA61FB71F84839583A683B78381E0BF
:103FD000089584898F5F848BE5CFFF920F931F93A1
:103FE000CF93DF93EC01F88483E08F1508F145E46B
:103FF00050E06DEE7FE188810E9484298C018CEC79
:104000009FE1F8019383828369E073E18C810E94D0
:10401000B329F80195878487FC01858180FF0BC057
:10402000F801F18ADF91CF911F910F91FF900895D0
:1040300089E20E94893D88E20E94893DCF93DF9307
:10404000EC0145969F938F938A891F928F938F855A
:104050008F938E858F931F926F9384ED93E09F9340
:104060008F930E94FF331A8A8E859F8501969F87C2
:104070008E878DB79EB70A960FB6F8949EBF0FBE77
:104080008DBFDF91CF910895FF920F931F93CF9330
:10409000DF938C01FC01F0806DEE7FE18F2D0E949B
:1040A000B329EC010E94D23A188AF80180859185E3
:1040B000A285B385892B8A2B8B2B01F58A898111E7
:1040C00018C08F858F938E858F931F92FF9289EDF5
:1040D00093E09F938F930E94FF330F900F900F9068
:1040E0000F900F900F90DF91CF911F910F91FF9044
:1040F00008956F2DCE010E941E20E3CFF801848128
:104100009581A681B7818C839D83AE83BF83808593
:104110009185A285B38588879987AA87BB871F86E3
:104120001E861A8A84858B8BCE01DF91CF911F91D9
:104130000F91FF900C94243BCF93DF93EC016A8D99
:10414000662309F453C0FC0150E031E020E0A38D68
:10415000B48D4C91958D942309F0532B2F5F330F21
:1041600033962613F4CF2C85922F952729F08D8531
:10417000852780959823D9F4888D5D8787FD03C0B6
:10418000815070F1888F4C815D816E817F8188853F
:104190009985AA85BB85840F951FA61FB71F8C83A1
:1041A0009D83AE83BF8381E0DF91CF910895982FE7
:1041B000909529238523822B8C879E859830E0F665
:1041C00021E0290F2E87FE01E90FF11D878710924C
:1041D000260181E080934C018FEF888F5D87D3CFDC
:1041E0001092260191E090934C01CCCF50E0BBCFD0
:1041F0000F931F93CF93DF938C0165E371E2FC0172
:1042000080810E94B329EC010E94D23AF801848196
:104210009581A681B7818C839D83AE83BF834085C2
:10422000518562857385488759876A877B8780892E
:104230008D878C871E861F8A8EEF888F8485898F55
:1042400087FD10C0452B462B472B29F4DF91CF91DA
:104250001F910F910895CE01DF91CF911F910F9182
:104260000C94243B8FE10E94893DCF93FC01C481D3
:10427000C930B8F44C2F50E09A01220F331F420F7F
:10428000531F455E5F4F65E371E2FC0180810E9430
:104290008429FC01C28F2CE930E233832283CF9141
:1042A000089581E20E94893D0F931F93CF93DF937E
:1042B0008C0165E371E2DC018C910E94B329FC0161
:1042C000D80114969C91828D9817B8F4292F30E06C
:1042D000E901CC0FDD1F2C0F3D1FEF01C20FD31FD3
:1042E000F801648580850E9479176B8F7C8F8D8F94
:1042F000DF91CF911F910F91089580E20E94893D37
:10430000FC014481558166817781208580810C94F0
:10431000502CFC0196899460968B1092260181E0C6
:1043200080934D0180E008950F931F93CF93DF9307
:104330008C0148E450E064E971E2FC0180810E9454
:104340008429EC0189E891E29B838A8365E97BE219
:10435000F80184810E94B3299D878C87DF91CF91DA
:104360001F910F9108954F925F926F927F928F925B
:104370009F92AF92BF92CF92DF92EF92FF920F93F4
:104380001F93CF93DF9300D01F92CDB7DEB76C01A0
:1043900064E971E2DC018C910E94B3297C010E94E6
:1043A000852F4B015C0182E78B83D7011C96ED9131
:1043B000FC911D978E010F5F1F4F22E0AE014D5FF4
:1043C0005F4F61E080810E948E160E94852F2B0135
:1043D0003C0189818F718983F70181898F9380895D
:1043E0008F9324893589ABEABAEA0E94333E9695C9
:1043F0008795969587959F938F9387891F928F9323
:1044000087858F9386858F93D301C2018819990977
:10441000AA09BB09BF93AF939F938F93BF92AF92AB
:104420009F928F92D6018C911F928F938FEC93E085
:104430009F938F930E94FF330FB6F894DEBF0FBE99
:10444000CDBF0F900F900F90DF91CF911F910F91E3
:10445000FF90EF90DF90CF90BF90AF909F908F90A4
:104460007F906F905F904F9008957F928F929F9270
:10447000AF92BF92CF92DF92EF92FF920F931F9372
:10448000CF93DF937C01DC01DC916DEE7FE18D2F1A
:104490000E94B3298C01F701C481B084A184DC019E
:1044A00051969C90B2E09B1609F44FC00E94852F54
:1044B0006B017C012B2D3A2D4C2F61E0D8011C960D
:1044C0008D919C911D970E94DA130E94852F8B017C
:1044D0009C010C191D092E093F09013213402105C9
:1044E000310558F54C2F50E0E1E09E1659F1AF929E
:1044F000BF925F934F93FF92EF92DF92CF921F9202
:10450000DF938EED93E09F938F930E94FF338DB7DF
:104510009EB70C960FB6F8949EBF0FBE8DBFDF916D
:10452000CF911F910F91FF90EF90DF90CF90BF90B0
:10453000AF909F908F907F90089540E050E0E1E031
:104540009E12D5CF6B017C01D2CFDC011C96ED9180
:10455000FC911D9794808280738040E0682D772DB8
:10456000892D0E94B2170E94852F6B017C01B0E15A
:10457000CB0ED11CE11CF11C0E94852F2F2DC616DD
:10458000D706E806290B27FFF7CFF89441E0682DFE
:10459000772D892D0E94B2170E94852F6B017C0117
:1045A00078942B2D3A2D4C2F61E0F8018485958568
:1045B0000E94DA134C2F50E09ACF0F931F93CF93A2
:1045C000DF93EC01F8940E94852F088519852A85D0
:1045D0003B85DC01CB01800F911FA21FB31F8C8391
:1045E0009D83AE83BF83CE010E94243B7894DF91EC
:1045F000CF911F910F910895CF93DF93EC014896CF
:104600009F938F938F891F928F938F858F938E8522
:104610008F931F926F938AEC93E09F938F930E94E6
:10462000FF331F8A8E859F8501969F878E878DB762
:104630009EB70A960FB6F8949EBF0FBE8DBFDF914E
:10464000CF9108954F925F926F927F928F929F9237
:10465000AF92BF92DF92EF92FF920F931F93CF938F
:10466000DF9300D000D0CDB7DEB78C01DC01DC9049
:1046700064E971E28D2D0E94B3297C01F8018085E7
:104680009185A285B385892B8A2B8B2BC9F1C70114
:104690000E94D23AF80184819581A681B781F70101
:1046A00084839583A683B783F80180859185A2854D
:1046B000B385F70180879187A287B38781E0868BD6
:1046C00017861686118A108A178A138A128A158A03
:1046D000148AC7010E94243B0F900F900F900F90F7
:1046E000DF91CF911F910F91FF90EF90DF90BF90DE
:1046F000AF909F908F907F906F905F904F900895B4
:10470000C7010E94D23AD70156961C9283E2898350
:104710001A820E94852F4B015C01D7011C96ED91F6
:10472000FC911D97AE014F5F5F4F62E080810E9458
:1047300018170E94852F2B013C018AE38C83D70137
:104740001C96ED91FC911D978E010D5F1F4F21E08E
:10475000AE014C5F5F4F61E080810E948E168B81BD
:1047600084FD48C0D70157968C91882321F06D2D88
:10477000C7010E94FC22B7016E5E7F4FF70184855E
:1047800095850E94BA2FD70151962C9151972F935E
:1047900050962C912F939C01ABEABAEA0E94333ECB
:1047A00096958795969587959F938F93F70187891F
:1047B0001F928F9387858F9386858F93D301C20134
:1047C00088199909AA09BB09BF93AF939F938F9347
:1047D000BF92AF929F928F921F92DF928FEC93E0E5
:1047E0009F938F930E94FF330FB6F894DEBF0FBEE6
:1047F000CDBF72CFF701808991890196918B808B13
:10480000B1CFCF92DF92EF92FF92CF93DF93FC0173
:10481000A085B18582858C93968581E089278687DE
:10482000C82FC170C688D788E08CF18C97859F5FB0
:10483000D1899D1708F05FC0892F8695869586954A
:10484000DF01A80FB11D5A962C9130E0892F877097
:1048500002C0359527958A95E2F72170B701A60128
:10486000C217A9F033C0892F869586958695DF01FA
:10487000A80FB11D5A962C9130E0892F877002C085
:10488000359527958A95E2F72170C2131FC04C0D0C
:104890005D1D6E1D7F1D9F5F9D1728F386EF96E2BD
:1048A0009383828384819581A681B781480F591FA4
:1048B0006A1F7B1F448355836683778381E0DF9182
:1048C000CF91FF90EF90DF90CF90089597878481EC
:1048D0009581A681B781480F591F6A1F7B1F4483AA
:1048E00055836683778381E0DF91CF91FF90EF90CE
:1048F000DF90CF900895B701A601D0CF6F927F923D
:104900008F92CF92DF92EF92FF92CF93DF93EC01E1
:1049100060E08C810E94332E3B01882EC884D984AC
:10492000EA84FB84D7FC24C0A601415F5F4F6EE799
:1049300074E288810E948429FC01608271828282F3
:10494000D686C5868C859D8594838383888999893D
:10495000AA89BB8981879287A387B487DF91CF918A
:10496000FF90EF90DF90CF908F907F906F900895A1
:1049700084E20E94893DCF92DF92EF92FF920F93E3
:104980001F93CF93DF93EC01E885F9858A858083B7
:104990000E94852F3E8521E023272E872F852F5FBC
:1049A0002F87213009F45CC02530E0F40C811D8193
:1049B0002E813F814A895B896C897D89DB01CA012F
:1049C000800F911FA21FB31F8C839D83AE83BF8373
:1049D00081E0DF91CF911F910F91FF90EF90DF90D9
:1049E000CF900895CC80DD80EE80FF80AB01BC01CC
:1049F0004C195D096E097F098E899F89A88DB98D33
:104A0000481B590B6A0B7B0BDB01CA010296A11DE7
:104A1000B11DB7FD34C0B595A79597958795B59508
:104A2000A795979587950A891B892C893D89800FC1
:104A3000911FA21FB31F8E8B9F8BA88FB98F21E070
:104A400034E23B832A834C0D5D1D6E1D7F1D840F58
:104A5000951FA61FB71F8C839D83AE83BF83B8CFDE
:104A60000C811D812E813F81AB01BC01401B510B8C
:104A7000620B730B4E8B5F8B688F798F9BCFDB0143
:104A8000CA010596A11DB11DC6CFEF92FF920F93EB
:104A90001F93CF93DF937C0166EE75E2FC0180816A
:104AA0000E94B329EC011E8511FF07C0DF91CF9151
:104AB0001F910F91FF90EF900895F7010481608599
:104AC0007185F4840B3008F045C0FAE0FF1508F456
:104AD00041C0402F50E04A960E94A43E1F861173A9
:104AE00012601E87802F880F880F880F898BFF0C1C
:104AF000FF0CFF0CF88A002349F08A8D8F738A32ED
:104B000029F48BEB94E29B838A830CC08A899B896E
:104B1000AC89BD898E8B9F8BA88FB98F81E094E281
:104B20009B838A83F8940E94852FDC01CB018058F7
:104B3000934FAF4FBF4F8C839D83AE83BF83CE0116
:104B40000E94243B7894DF91CF911F910F91FF90A9
:104B5000EF90089582E20E94893D0F931F93CF93B7
:104B6000DF938C0165E371E2DC018C910E94B32933
:104B7000EC01D8011496EC918F898E0F8F8BF894ED
:104B80008E85E817D0F48E1BF0E03F96EC0FFD1FEA
:104B9000DE011F962FEF280F30E0205F3F4F2C0FD4
:104BA0003D1F91919D93A217B307D9F78E877894F3
:104BB000DF91CF911F910F9108951E868EEF888F00
:104BC0007894DF91CF911F910F9108957F928F92EA
:104BD0009F92AF92BF92CF92DF92EF92FF920F938C
:104BE0001F93CF93DF93EC0144E250E066EE75E251
:104BF00088810E9484298C0178848C809D80AE807D
:104C0000BF80CC84DD84EE84FF8461E0711001C03C
:104C100060E0882D0E947917F80163877487858783
:104C200061E08C2D0E94332EF801608771878287A6
:104C300088899989AA89BB89828B938BA48BB58B30
:104C4000711018C091E08C149D04AE04BF04C1F033
:104C500080E0892BF8018687DF91CF911F910F911A
:104C6000FF90EF90DF90CF90BF90AF909F908F908C
:104C70007F90089591E18C149D04AE04BF0441F728
:104C800080E2E7CFCF93DF93EC018E8585FD0DC0E9
:104C9000688579858A8541E00E94B2178E85807388
:104CA00081608E87DF91CF910895688579858A85A7
:104CB00041E00E94C1178E85807381608E87DF91ED
:104CC000CF910895CF93DF93FC01A385B4855C91C8
:104CD0008785982F977021E030E001C0220F9A95C8
:104CE000EAF7982F969596959695DF01A90FB11D35
:104CF0005A969C915A9745854523E1F0292B5A965F
:104D00002C938F5F90898917E8F4878744815581B8
:104D10006681778186899789A08DB18D840F951FD3
:104D2000A61FB71F84839583A683B78381E0DF9195
:104D3000CF910895209529235A962C938F5F9089BF
:104D4000891718F3EF01CF010E9442268E858860F3
:104D50008E871092260181E080934E0180E0DF91E2
:104D6000CF910895CF93DF93FC01A385B4859C91E7
:104D700085858923E9F0868584608687878591E02B
:104D8000980F9787803408F5448155816681778133
:104D900086899789A08DB18D840F951FA61FB71F97
:104DA00084839583A683B78381E0DF91CF910895B3
:104DB000868582FFE3CF178682E696E2938382831D
:104DC000CF01DF91CF910C946226EF01108ACF01C1
:104DD0000E9442268E8588608E871092260181E08F
:104DE00080934E0180E0DF91CF9108951F93CF9380
:104DF000DF93EC011889112369F14E8545FD23C02D
:104E00001F8682EB96E29B838A838E899F89A88D79
:104E1000B98D880F991FAA1FBB1F880F991FAA1F42
:104E2000BB1F4C815D816E817F81840F951FA61F02
:104E3000B71F8C839D83AE83BF8311E0812FDF91E9
:104E4000CF911F91089540716B857C858D850E945F
:104E50006317D6CF0E9442268E8588608E87109277
:104E6000260181E080934E01812FDF91CF911F9128
:104E70000895FC0186898460868B1092260181E06A
:104E80008093490144815581668177818089918928
:104E9000A289B389840F951FA61FB71F84839583AA
:104EA000A683B78381E00895FC013897968990FF27
:104EB00008C0608D678B9A7F9460968BCF010E94AB
:104EC0000F1F80E00895FC01A085B1859C9182852B
:104ED0008923D1F0818D80958170C9F4838D8150B3
:104EE00031F1838F448155816681778187859089EF
:104EF000A189B289840F951FA61FB71F848395834C
:104F0000A683B78381E00895818D817039F38EEA9D
:104F100097E29383828383899489A589B689848360
:104F20009583A683B783828D838F81E00895A789B7
:104F3000B08D56969C915697892F817090FFE3CF44
:104F4000648D57966C9357979A7F946056969C936E
:104F50005697CD010E940F1F80E008950F931F9375
:104F6000FC01A085B1859C91048115812681378142
:104F70004385548565857685400F511F621F731FD9
:104F80008285892361F0818D8095817059F04483F9
:104F900055836683778381E01F910F910895818DFA
:104FA0008170A9F7438B548B658B768B83E697E2F0
:104FB00093838283CF011F910F910C946327CF932A
:104FC000FC01C08161E578E28C2F0E94B329FC01CD
:104FD000F894818D33894489558966897894A085B0
:104FE000B1852C919285922321E009F420E01F9253
:104FF0002F936F935F934F933F93869581701F928A
:105000008F931F92CF9384E294E09F938F930E949B
:10501000FF338DB79EB70C960FB6F8949EBF0FBEA8
:105020008DBFCF910895CF93FC01C08166EA70E1F6
:105030008C2F0E94B329FC01F89480A191A1A2A118
:10504000B3A124A5468557856089718924FD04C0D4
:105050007695679557954795841B950BA60BB70BCF
:10506000B7FF07C0B095A095909581959F4FAF4F22
:10507000BF4F7894B054BF93AF939F938F931F9279
:10508000CF9389E294E09F938F930E94FF338DB773
:105090009EB708960FB6F8949EBF0FBE8DBFCF91F6
:1050A00008950F931F93CF93DF93EC014DE150E0F0
:1050B00061E578E288810E9484298C0168858C8171
:1050C0000E947917F801608771878287DF91CF91FD
:1050D0001F910F9108950F931F93CF93DF938C012E
:1050E00061E578E2FC0180810E94B329EC010E9415
:1050F000D23AF80184819581A681B7818C839D8302
:10510000AE83BF8380859185A285B3858F87988B79
:10511000A98BBA8B84858A8F882361F1F801408935
:105120005189628973894B875C876D877E872EEAF8
:1051300037E23B832A838B8F84899589A689B78937
:10514000892B8A2B8B2BA1F482E0898F63E47EE18B
:10515000F801808D0E94B329988F8F8BF801848D80
:105160008C8FCE01DF91CF911F910F910C94243B36
:1051700083E0EBCF188E1F8A198EDF91CF911F919C
:105180000F9108950F931F93CF93DF938C01EC0140
:10519000A897CE010E94D23A1C821D821E821F82D5
:1051A0001A8A1B8A1C8A1D8A88A199A1AAA1BBA15F
:1051B0002CA54E855F856889798924FD04C0769584
:1051C000679557954795841B950BA60BB70BB7FDB5
:1051D00040C0B095A095909581959F4FAF4FBF4F20
:1051E00088A399A3AAA3BBA31E861F86188A198A1F
:1051F000247128602CA76D8D7E8D8F8D40E00E94DC
:10520000B2174CA544706A8D7B8D8C8D0E94B217AD
:10521000D8011497ED91FC9111973097A9F0409126
:1052200047019091480101C0F901208131814083FB
:105230009183F0934801E09347014E2F9F2F211552
:10524000310591F71D921C92DF91CF911F910F9123
:105250000895B095A095909581959F4FAF4FBF4F02
:10526000B8CF0F931F93CF93DF938C0166EA70E161
:10527000FC0180810E94B329EC0163E47EE1F80126
:1052800084810E94B329BE01685D7F4F4FB7F894B7
:105290002AA53BA5232B89F422EC38E23BA72AA7B9
:1052A000FC012489358939A728A7758B648B4FBFEA
:1052B000DF91CF911F910F91089589E10E94893D5F
:1052C000CF93DF93EC01988140913701A091380191
:1052D000B09139010BC0FD0184E0989FE00DF11DF4
:1052E0001124208131812617370741F09F5F9417E1
:1052F00090F380E090E0DF91CF91089598838281D0
:105300009381DF91CF910895CF93DF9390913701EF
:10531000891730F5C82FD0E0CC0FDD1FCC0FDD1F73
:10532000E0913801F0913901EC0FFD1F80819181EE
:10533000892BB1F480913F0190914001892B81F438
:1053400071836083CA010E94DC332091380130915F
:105350003901C20FD31F9B838A83DF91CF910895B8
:105360008BE00E94893D90913701891788F4E09184
:105370003801F091390194E0899FE00DF11D11246D
:10538000808191818617970719F48281938108950E
:105390008CE00E94893DCF92DF92EF92FF92CF93F3
:1053A000DF93C0913F01D09140012097B9F121973F
:1053B0006E01E12CF12CA0913E01B0E02097D9F0D4
:1053C00020E030E040E050E0BA0180913C01909153
:1053D0003D01FC01E20FF31F4F5F5F4F6F4F7F4FA7
:1053E0002A0F3B1F820F931F918380834C155D050D
:1053F0006E057F0550F380913C0190913D01CA9F5D
:10540000F001CB9FF00DDA9FF00D1124E80FF91F8A
:10541000118210829093480180934701DF91CF91D0
:10542000FF90EF90DF90CF900895FC0113821282DD
:10543000118210826F3F710509F07CF480913F0169
:1054400090914001892B49F480913E0190E08617AC
:10545000970714F460933E0108950E94082E2FB719
:10546000F8948091470190914801009749F0FC0120
:105470004081518150934801409347012FBF0895C7
:105480008FE00E94893D80912701882329F0823096
:1054900011F010922701089582E00E94893D88E072
:1054A0000E94893DCF92DF92EF92FF920F931F935C
:1054B0000E94852F9F938F937F936F9301E010E05D
:1054C00020E030E0C0905301D0905401E0905501AD
:1054D000F09056016C157D058E059F0518F000E0D3
:1054E00010E0980180914F0190915001A0915101DD
:1054F000B0915201800F911FA21FB31FBF93AF93B2
:105500009F938F9382E494E09F938F930E94FF3345
:105510008DB79EB70A960FB6F8949EBF0FBE8DBF8B
:105520001F910F91FF90EF90DF90CF9008950E9410
:10553000852F9F938F937F936F938DE394E09F9339
:105540008F930E94FF330F900F900F900F900F904A
:105550000F900895CF93DF93EC0165E97BE288819A
:105560000E94B3296C8148855985FC01238120FD67
:1055700006C0FC018081DF91CF910C9418178181C6
:105580009281DF91CF910C94631C2F923F924F92A6
:105590005F926F927F928F929F92AF92BF92CF92C3
:1055A000DF92EF92FF920F931F93CF93DF9300D080
:1055B00000D000D0CDB7DEB78C012DB73EB73D830C
:1055C0002C8365E97BE2DC018C910E94B3299A83EC
:1055D0008983F801F481FB83D80118968D909C9003
:1055E00019971C964D905D906D907C901F9740FC94
:1055F00099C07694679457944794F801E088F188AD
:10560000C42CD12CFB810F2F10E0C8018C0D9D1DE7
:105610002DB73EB7281B390B0FB6F8943EBF0FBE0F
:105620002DBF8DB79EB701965C01A981BA811396F3
:105630003C90A801B4010E94A43EB32DB170BE837A
:1056400030FE53C01501200E311E8101242DA4010E
:105650006B81E981FA81818192810E94B11BC11421
:10566000D10409F453C0A6014E0D5F1DF10120E0E5
:1056700030E0D7018D917D018095908189238083D1
:10568000DA019D91AD01892B81932F5F3F4F2C153E
:105690003D057CF3BE81B11139C06B81640DA5015C
:1056A000E981FA8180810E9418172C813D810FB613
:1056B000F8943EBF0FBE2DBF26960FB6F894DEBFFE
:1056C0000FBECDBFDF91CF911F910F91FF90EF9053
:1056D000DF90CF90BF90AF909F908F907F906F9012
:1056E0005F904F903F902F9008951501200E311E2E
:1056F0008101242DA4016B81E981FA8180810E94BE
:105700008E16C114D10409F0AECFC7CF6B81640DE2
:10571000A501A981BA8111968D919C9112970E9441
:10572000631CC3CF8CE10E94893D44E050E065E9F1
:105730007BE2FC0180810C948429AF92BF92CF92CE
:10574000DF92EF92FF920F931F93CF93DF93CDB72A
:10575000DEB77C01ADB6BEB6FC01C08065E97BE278
:105760008C2D0E94B329F701648140855185D48432
:105770002DB73EB72D1931090FB6F8943EBF0FBEB5
:105780002DBFEDB7FEB731967F01FC012381870164
:1057900020FD2AC02D2DFC0180810E948E16FF92D3
:1057A000EF921F92DF921F92CF9280E194E09F933D
:1057B0008F930E94FF332DB73EB7285F3F4F0FB640
:1057C000F8943EBF0FBE2DBF0FB6F894BEBE0FBEFD
:1057D000ADBEDF91CF911F910F91FF90EF90DF90C1
:1057E000CF90BF90AF9008952D2D818192810E941E
:1057F000B11BD5CF8F929F92AF92BF92FF920F9322
:105800001F93CF93DF938C01FC0184858F77F82E53
:1058100065E97BE280810E94B329EC01F801848173
:105820009581A681B781892B8A2B8B2BB1F580912D
:10583000BC0082FF10C08F2D880F88838B8182600F
:105840008B83DF91CF911F910F91FF90BF90AF900D
:105850009F908F900895F80180849184A284B384EE
:1058600061E081E10E94332E61E080E10E94332EED
:105870001092B900F0E88F16FAE19F06F6E0AF0645
:10588000B10438F488E48093B80084E08093BC00CD
:10589000D2CF8CE08093B800F8CF81E30E94893D9D
:1058A000CF92DF92EF92FF921F93CF93DF936A0123
:1058B0007B0168E674E0FB019491981749F0675FFB
:1058C0007F4FF4E0603B7F07B1F784E30E94893D9E
:1058D000FB013896949191FF19C030EAC3163FE559
:1058E000D306E104F10408F081C0A8EDCA16A7E2CE
:1058F000DA06E104F10408F08AC0B7EFCB16B8E08D
:10590000DB06E104F10488F012E010C0F8EBCF16DA
:10591000F7E4DF06E104F10408F057C037EFC316DF
:1059200038E0D306E104F10478F711E0FB01339687
:10593000A591B491FB013596C591D491FB013796A1
:105940003491E82FE695E695E695F0E0EE0FFF1F1F
:10595000E05AFB4F459154918770E1E0F0E07F0100
:1059600001C0EE0C8A95EAF7FB013196C590D49000
:10597000892F8170A038B10509F45CC0EFB7F894A5
:105980009881977011F0191352C0188381114AC081
:105990009FB7F894622F70E0E601798368839FBF18
:1059A0009C913160392B3C93DA0111969C911197AF
:1059B000E92A1196EC92EFBFB601DF91CF911F91CA
:1059C000FF90EF90DF90CF900895A0ECCA16AEE361
:1059D000DA06A1E0EA06F104D0F0C114BBEFDB0661
:1059E000B4E0EB06F10488F414E0A0CFC0E8CC16D4
:1059F000CEE7DC06C1E0EC06F10458F4D0E4CD16A5
:105A0000DFEBDD06E104F10478F315E08FCF13E05E
:105A10008DCFC114EBEFDE06E4E0EE06F10428F4CE
:105A200016E084CFE6012883BBCF17E07FCF82E367
:105A30000E94893D83E30E94893D0F931F93FC01DF
:105A4000A489B58986898C9393A181E0892783A352
:105A5000448155816681778180FF12C00085118560
:105A600022853385400F511F621F731F82FD12C0B4
:105A7000448355836683778381E01F910F91089556
:105A80000485158526853785400F511F621F731FBA
:105A900082FFEECF0089118922893389872F401731
:105AA00051076207830B87FDE3CF8FE398E1938370
:105AB0008283B901A801448355836683778381E09B
:105AC0001F910F9108950895FC018081A481B581F3
:105AD00040855185628573859FB7F894813061F068
